:1000000010C028C0B1C026C025C024C023C022C053
:1000100021C020C01FC05DC11DC01CC01BC01AC0B4
:10002000CBC011241FBECFEDCDBF10E0A0E6B0E0E5
:10003000EEE6F4E002C005900D92A039B107D9F7C1
:1000400020E0A0E9B0E001C01D92A63BB207E1F7B5
:1000500068D10BC2D5CF282F30E0220F331F8695F1
:1000600085752A7A282B822F90E0880F991F880F98
:10007000991F2695269523738C7C282B822F90E040
:1000800082959295907F9827807F982722952F7050
:10009000822B08951092A3001092A4001092910058
:1000A0001092920008958AB38F798ABB8BB38066D1
:1000B0008BBBF0DF0895F89412BE88B7816088BFCB
:1000C00089B7816089BF83B7826083BF83B5816050
:1000D00083BD84E58DB98FEF8EB98FB98AB3806205
:1000E0008ABB8091900081608093900078940895FD
:1000F0000F931F93CF93C0919200CF5FCF709091D9
:100100009100C917E1F30C2F10E0A5DFF801ED56BF
:10011000FF4F8083C09392008091900080FD05C0C6
:100120008091900082FDFCCFC6DFCF911F910F918F
:1001300008959091A4008091A3009817D1F3E091C5
:10014000A300EF5FEF70E093A300F0E0EB55FF4FEB
:10015000808181DF08952091A4009091A30081E027
:10016000291301C080E008951F920F920FB60F92DD
:1001700011248F93CE991AC089EE82BF83B7826013
:1001800083BF83B5816083BD88B7816088BF89B72D
:10019000816089BF84E58DB988EF8EB98BB78F7E7A
:1001A0008BBF809190008460809390008F910F901E
:1001B0000FBE0F901F9018951F920F920FB60F92BF
:1001C00011248F939F93EF93FF938091900080FF72
:1001D0004DC08091900081FF13C0809190008D7F71
:1001E000809390008BEF8EB98091B50090E0880FDE
:1001F000991F880F991F880F991F87608FB960C05A
:1002000090919200809191009817D1F08091900088
:10021000826080939000E0919100EF5FEF70E09337
:100220009100F0E0ED56FF4F80818093B5008BEF99
:100230008EB98091B5008695869580688FB940C04B
:10024000809190008E7F8093900083B78D7F83BFD5
:100250008AB380628ABB1DB88AB780618ABF8BB7B8
:1002600080618BBF82B3806482BB2AC08091900082
:100270008B7F80939000E091A400EF5FEF708091FE
:10028000A300E81306C080919000886080939000DE
:1002900007C0E093A400F0E08FB1EB55FF4F8083DF
:1002A00083B78D7F83BF8AB380628ABB1DB88AB74C
:1002B00080618ABF8BB780618BBF82B3806482BB51
:1002C000FF91EF919F918F910F900FBE0F901F9014
:1002D00018951F920F920FB60F9211248F9382B729
:1002E000815182BF8F910F900FBE0F901F90189574
:1002F0000F931F93CF938C01C0E002C0CF5FF8DE55
:10030000F801EC0FF11D80818111F8CFCF911F9181
:100310000F9108958AB380688ABB8BB38F778BBBAC
:100320000895CF93DF93CDB7DD27C450CDBFF2DF63
:10033000BADEC1DE8FE19EE40197F1F700C0000054
:1003400010E086C0F6DE8A3009F074C0212F30E05C
:10035000E1E0F0E0EC0FFD1FE20FF31F108211232C
:1003600091F021503109E1E0F0E0EC0FFD1FE20FC8
:10037000F31F90819D3039F4E1E0F0E0EC0FFD1FB8
:10038000E20FF31F1082111103C0883409F060C01E
:1003900060E670E0CE0101965FD0892BB1F48AE06F
:1003A000A7DE8FE097E20197F1F700C0000084E636
:1003B00090E09EDF82E29CDE8AE690E099DF82E2B6
:1003C00097DE8AE095DE10E043C063E770E0CE017F
:1003D000019642D0892BB1F48AE08ADE8FE097E261
:1003E0000197F1F700C0000087E790E081DF82E22B
:1003F0007FDE84E890E07CDF82E27ADE8AE078DEED
:1004000010E026C068E870E0CE01019625D0892B67
:1004100029F48BB380688BBB10E01AC06CE870E0E5
:10042000CE01019619D0892B81F48BB38F778BBBCA
:1004300010E00EC0133058F4E1E0F0E0EC0FFD1FC7
:10044000E10FF11D80831F5F03C010E001C010E0C9
:1004500082DE811177CFFCCFFB01DC018D91019011
:0E04600080190110D9F3990B0895F894FFCF7D
:10046E00484844004D3938205000534D56363036EA
:10047E002E6700484F4B004D313138205030204C04
:10048E003120530046444D004830490048304F005B
:00000001FF
